{"abi":[{"type":"constructor","inputs":[{"name":"newAddr","type":"address","internalType":"address"},{"name":"feeAmt","type":"uint256","internalType":"uint256"},{"name":"basisFee","type":"uint256","internalType":"uint256"}],"stateMutability":"nonpayable"},{"type":"receive","stateMutability":"payable"},{"type":"function","name":"INITIAL_SUPPLY","inputs":[],"outputs":[{"name":"","type":"uint256","internalType":"uint256"}],"stateMutability":"view"},{"type":"function","name":"addComment","inputs":[{"name":"token","type":"address","internalType":"address"},{"name":"message","type":"string","internalType":"string"}],"outputs":[],"stateMutability":"nonpayable"},{"type":"function","name":"bondingCurve","inputs":[{"name":"","type":"address","internalType":"address"}],"outputs":[{"name":"tokenMint","type":"address","internalType":"address"},{"name":"virtualTokenReserves","type":"uint256","internalType":"uint256"},{"name":"virtualEthReserves","type":"uint256","internalType":"uint256"},{"name":"realTokenReserves","type":"uint256","internalType":"uint256"},{"name":"realEthReserves","type":"uint256","internalType":"uint256"},{"name":"tokenTotalSupply","type":"uint256","internalType":"uint256"},{"name":"mcapLimit","type":"uint256","internalType":"uint256"},{"name":"complete","type":"bool","internalType":"bool"},{"name":"creationTime","type":"uint256","internalType":"uint256"},{"name":"lastTradeTime","type":"uint256","internalType":"uint256"},{"name":"tradeCount","type":"uint256","internalType":"uint256"},{"name":"creator","type":"address","internalType":"address"},{"name":"description","type":"string","internalType":"string"},{"name":"isKingOfHill","type":"bool","internalType":"bool"}],"stateMutability":"view"},{"type":"function","name":"buy","inputs":[{"name":"token","type":"address","internalType":"address"},{"name":"amount","type":"uint256","internalType":"uint256"},{"name":"maxEthCost","type":"uint256","internalType":"uint256"}],"outputs":[],"stateMutability":"payable"},{"type":"function","name":"calculateCurrentPrice","inputs":[{"name":"token","type":"address","internalType":"address"}],"outputs":[{"name":"","type":"uint256","internalType":"uint256"}],"stateMutability":"view"},{"type":"function","name":"calculateEthCost","inputs":[{"name":"token","type":"tuple","internalType":"struct PumpFun.Token","components":[{"name":"tokenMint","type":"address","internalType":"address"},{"name":"virtualTokenReserves","type":"uint256","internalType":"uint256"},{"name":"virtualEthReserves","type":"uint256","internalType":"uint256"},{"name":"realTokenReserves","type":"uint256","internalType":"uint256"},{"name":"realEthReserves","type":"uint256","internalType":"uint256"},{"name":"tokenTotalSupply","type":"uint256","internalType":"uint256"},{"name":"mcapLimit","type":"uint256","internalType":"uint256"},{"name":"complete","type":"bool","internalType":"bool"},{"name":"creationTime","type":"uint256","internalType":"uint256"},{"name":"lastTradeTime","type":"uint256","internalType":"uint256"},{"name":"tradeCount","type":"uint256","internalType":"uint256"},{"name":"creator","type":"address","internalType":"address"},{"name":"description","type":"string","internalType":"string"},{"name":"isKingOfHill","type":"bool","internalType":"bool"}]},{"name":"tokenAmount","type":"uint256","internalType":"uint256"}],"outputs":[{"name":"","type":"uint256","internalType":"uint256"}],"stateMutability":"pure"},{"type":"function","name":"createPool","inputs":[{"name":"token","type":"address","internalType":"address"},{"name":"description","type":"string","internalType":"string"}],"outputs":[],"stateMutability":"payable"},{"type":"function","name":"currentKingToken","inputs":[],"outputs":[{"name":"","type":"address","internalType":"address"}],"stateMutability":"view"},{"type":"function","name":"getAllTokens","inputs":[],"outputs":[{"name":"","type":"address[]","internalType":"address[]"}],"stateMutability":"view"},{"type":"function","name":"getBondingCurve","inputs":[{"name":"mint","type":"address","internalType":"address"}],"outputs":[{"name":"","type":"tuple","internalType":"struct PumpFun.Token","components":[{"name":"tokenMint","type":"address","internalType":"address"},{"name":"virtualTokenReserves","type":"uint256","internalType":"uint256"},{"name":"virtualEthReserves","type":"uint256","internalType":"uint256"},{"name":"realTokenReserves","type":"uint256","internalType":"uint256"},{"name":"realEthReserves","type":"uint256","internalType":"uint256"},{"name":"tokenTotalSupply","type":"uint256","internalType":"uint256"},{"name":"mcapLimit","type":"uint256","internalType":"uint256"},{"name":"complete","type":"bool","internalType":"bool"},{"name":"creationTime","type":"uint256","internalType":"uint256"},{"name":"lastTradeTime","type":"uint256","internalType":"uint256"},{"name":"tradeCount","type":"uint256","internalType":"uint256"},{"name":"creator","type":"address","internalType":"address"},{"name":"description","type":"string","internalType":"string"},{"name":"isKingOfHill","type":"bool","internalType":"bool"}]}],"stateMutability":"view"},{"type":"function","name":"getComments","inputs":[{"name":"token","type":"address","internalType":"address"}],"outputs":[{"name":"","type":"tuple[]","internalType":"struct PumpFun.Comment[]","components":[{"name":"user","type":"address","internalType":"address"},{"name":"message","type":"string","internalType":"string"},{"name":"timestamp","type":"uint256","internalType":"uint256"}]}],"stateMutability":"view"},{"type":"function","name":"getContractBalance","inputs":[],"outputs":[{"name":"","type":"uint256","internalType":"uint256"}],"stateMutability":"view"},{"type":"function","name":"getCreateFee","inputs":[],"outputs":[{"name":"","type":"uint256","internalType":"uint256"}],"stateMutability":"view"},{"type":"function","name":"getTokenDetail","inputs":[{"name":"token","type":"address","internalType":"address"}],"outputs":[{"name":"tokenInfo","type":"tuple","internalType":"struct PumpFun.Token","components":[{"name":"tokenMint","type":"address","internalType":"address"},{"name":"virtualTokenReserves","type":"uint256","internalType":"uint256"},{"name":"virtualEthReserves","type":"uint256","internalType":"uint256"},{"name":"realTokenReserves","type":"uint256","internalType":"uint256"},{"name":"realEthReserves","type":"uint256","internalType":"uint256"},{"name":"tokenTotalSupply","type":"uint256","internalType":"uint256"},{"name":"mcapLimit","type":"uint256","internalType":"uint256"},{"name":"complete","type":"bool","internalType":"bool"},{"name":"creationTime","type":"uint256","internalType":"uint256"},{"name":"lastTradeTime","type":"uint256","internalType":"uint256"},{"name":"tradeCount","type":"uint256","internalType":"uint256"},{"name":"creator","type":"address","internalType":"address"},{"name":"description","type":"string","internalType":"string"},{"name":"isKingOfHill","type":"bool","internalType":"bool"}]},{"name":"comments","type":"tuple[]","internalType":"struct PumpFun.Comment[]","components":[{"name":"user","type":"address","internalType":"address"},{"name":"message","type":"string","internalType":"string"},{"name":"timestamp","type":"uint256","internalType":"uint256"}]},{"name":"buyers","type":"address[]","internalType":"address[]"},{"name":"sellers","type":"address[]","internalType":"address[]"}],"stateMutability":"view"},{"type":"function","name":"getTokenDetails","inputs":[{"name":"token","type":"address","internalType":"address"}],"outputs":[{"name":"tokenInfo","type":"tuple","internalType":"struct PumpFun.Token","components":[{"name":"tokenMint","type":"address","internalType":"address"},{"name":"virtualTokenReserves","type":"uint256","internalType":"uint256"},{"name":"virtualEthReserves","type":"uint256","internalType":"uint256"},{"name":"realTokenReserves","type":"uint256","internalType":"uint256"},{"name":"realEthReserves","type":"uint256","internalType":"uint256"},{"name":"tokenTotalSupply","type":"uint256","internalType":"uint256"},{"name":"mcapLimit","type":"uint256","internalType":"uint256"},{"name":"complete","type":"bool","internalType":"bool"},{"name":"creationTime","type":"uint256","internalType":"uint256"},{"name":"lastTradeTime","type":"uint256","internalType":"uint256"},{"name":"tradeCount","type":"uint256","internalType":"uint256"},{"name":"creator","type":"address","internalType":"address"},{"name":"description","type":"string","internalType":"string"},{"name":"isKingOfHill","type":"bool","internalType":"bool"}]},{"name":"bondingCurveProgress","type":"uint256","internalType":"uint256"},{"name":"kingOfHillProgress","type":"uint256","internalType":"uint256"},{"name":"currentMcap","type":"uint256","internalType":"uint256"},{"name":"ethInCurve","type":"uint256","internalType":"uint256"}],"stateMutability":"view"},{"type":"function","name":"getTokenProgress","inputs":[{"name":"token","type":"address","internalType":"address"}],"outputs":[{"name":"bondingCurveProgress","type":"uint256","internalType":"uint256"},{"name":"kingOfHillProgress","type":"uint256","internalType":"uint256"},{"name":"currentMcap","type":"uint256","internalType":"uint256"},{"name":"ethInCurve","type":"uint256","internalType":"uint256"},{"name":"isKing","type":"bool","internalType":"bool"}],"stateMutability":"view"},{"type":"function","name":"getTokenStats","inputs":[{"name":"token","type":"address","internalType":"address"}],"outputs":[{"name":"creationTime","type":"uint256","internalType":"uint256"},{"name":"lastTradeTime","type":"uint256","internalType":"uint256"},{"name":"tradeCount","type":"uint256","internalType":"uint256"},{"name":"creator","type":"address","internalType":"address"},{"name":"currentPrice","type":"uint256","internalType":"uint256"},{"name":"remainingSupply","type":"uint256","internalType":"uint256"}],"stateMutability":"view"},{"type":"function","name":"getTraders","inputs":[{"name":"token","type":"address","internalType":"address"}],"outputs":[{"name":"buyers","type":"address[]","internalType":"address[]"},{"name":"sellers","type":"address[]","internalType":"address[]"}],"stateMutability":"view"},{"type":"function","name":"kingOfHillMcap","inputs":[],"outputs":[{"name":"","type":"uint256","internalType":"uint256"}],"stateMutability":"view"},{"type":"function","name":"sell","inputs":[{"name":"token","type":"address","internalType":"address"},{"name":"amount","type":"uint256","internalType":"uint256"},{"name":"minEthOutput","type":"uint256","internalType":"uint256"}],"outputs":[],"stateMutability":"nonpayable"},{"type":"function","name":"setFeeAmount","inputs":[{"name":"newBasisPoint","type":"uint256","internalType":"uint256"},{"name":"newCreateFee","type":"uint256","internalType":"uint256"}],"outputs":[],"stateMutability":"nonpayable"},{"type":"function","name":"setFeeRecipient","inputs":[{"name":"newAddr","type":"address","internalType":"address"}],"outputs":[],"stateMutability":"nonpayable"},{"type":"function","name":"setInitialVirtualReserves","inputs":[{"name":"initToken","type":"uint256","internalType":"uint256"},{"name":"initEth","type":"uint256","internalType":"uint256"}],"outputs":[],"stateMutability":"nonpayable"},{"type":"function","name":"setMcapLimit","inputs":[{"name":"newLimit","type":"uint256","internalType":"uint256"}],"outputs":[],"stateMutability":"nonpayable"},{"type":"function","name":"setOwner","inputs":[{"name":"newAddr","type":"address","internalType":"address"}],"outputs":[],"stateMutability":"nonpayable"},{"type":"function","name":"setTotalSupply","inputs":[{"name":"newSupply","type":"uint256","internalType":"uint256"}],"outputs":[],"stateMutability":"nonpayable"},{"type":"function","name":"withdraw","inputs":[{"name":"token","type":"address","internalType":"address"}],"outputs":[],"stateMutability":"nonpayable"},{"type":"event","name":"CoinFlipBet","inputs":[{"name":"player","type":"address","indexed":true,"internalType":"address"},{"name":"amount","type":"uint256","indexed":false,"internalType":"uint256"},{"name":"choice","type":"bool","indexed":false,"internalType":"bool"},{"name":"result","type":"bool","indexed":false,"internalType":"bool"},{"name":"timestamp","type":"uint256","indexed":false,"internalType":"uint256"}],"anonymous":false},{"type":"event","name":"CoinFlipWin","inputs":[{"name":"player","type":"address","indexed":true,"internalType":"address"},{"name":"amount","type":"uint256","indexed":false,"internalType":"uint256"}],"anonymous":false},{"type":"event","name":"CommentAdded","inputs":[{"name":"token","type":"address","indexed":true,"internalType":"address"},{"name":"user","type":"address","indexed":true,"internalType":"address"},{"name":"message","type":"string","indexed":false,"internalType":"string"},{"name":"timestamp","type":"uint256","indexed":false,"internalType":"uint256"}],"anonymous":false},{"type":"event","name":"Complete","inputs":[{"name":"user","type":"address","indexed":true,"internalType":"address"},{"name":"mint","type":"address","indexed":true,"internalType":"address"},{"name":"timestamp","type":"uint256","indexed":false,"internalType":"uint256"}],"anonymous":false},{"type":"event","name":"CreatePool","inputs":[{"name":"mint","type":"address","indexed":true,"internalType":"address"},{"name":"user","type":"address","indexed":true,"internalType":"address"}],"anonymous":false},{"type":"event","name":"NewKingOfHill","inputs":[{"name":"token","type":"address","indexed":true,"internalType":"address"},{"name":"mcap","type":"uint256","indexed":false,"internalType":"uint256"},{"name":"timestamp","type":"uint256","indexed":false,"internalType":"uint256"}],"anonymous":false},{"type":"event","name":"PriceUpdate","inputs":[{"name":"token","type":"address","indexed":true,"internalType":"address"},{"name":"newPrice","type":"uint256","indexed":false,"internalType":"uint256"},{"name":"timestamp","type":"uint256","indexed":false,"internalType":"uint256"}],"anonymous":false},{"type":"event","name":"ProgressUpdate","inputs":[{"name":"token","type":"address","indexed":true,"internalType":"address"},{"name":"bondingCurveProgress","type":"uint256","indexed":false,"internalType":"uint256"},{"name":"kingOfHillProgress","type":"uint256","indexed":false,"internalType":"uint256"},{"name":"timestamp","type":"uint256","indexed":false,"internalType":"uint256"}],"anonymous":false},{"type":"event","name":"Trade","inputs":[{"name":"mint","type":"address","indexed":true,"internalType":"address"},{"name":"ethAmount","type":"uint256","indexed":false,"internalType":"uint256"},{"name":"tokenAmount","type":"uint256","indexed":false,"internalType":"uint256"},{"name":"isBuy","type":"bool","indexed":false,"internalType":"bool"},{"name":"user","type":"address","indexed":true,"internalType":"address"},{"name":"timestamp","type":"uint256","indexed":false,"internalType":"uint256"},{"name":"virtualEthReserves","type":"uint256","indexed":false,"internalType":"uint256"},{"name":"virtualTokenReserves","type":"uint256","indexed":false,"internalType":"uint256"}],"anonymous":false},{"type":"error","name":"ReentrancyGuardReentrantCall","inputs":[]}],"bytecode":{"object":"0x60806040525f6009553480156012575f5ffd5b506040516137c63803806137c6833981016040819052602f91609c565b60015f8190558054336001600160a01b031991821617909155600280549091166001600160a01b0394909416939093179092556008556007556b033b2e3c9fd0803ce8000000600381905568a2a15d09519be0000060045560055569152d02c7e14af680000060065560d9565b5f5f5f6060848603121560ad575f5ffd5b83516001600160a01b038116811460c2575f5ffd5b602085015160409095015190969495509392505050565b6136e0806100e65f395ff3fe608060405260043610610198575f3560e01c80637731e696116100e7578063ca88d5c511610087578063e74b981b11610062578063e74b981b14610526578063e8dc132b14610545578063efc2ead814610564578063f7ea7a3d14610583575f5ffd5b8063ca88d5c514610479578063d0c58e48146104ce578063e2005b9814610507575f5ffd5b8063a0d8d57b116100c2578063a0d8d57b14610411578063a59ac6dd14610426578063c16c72c014610439578063c3629dbe14610466575f5ffd5b80637731e6961461039657806383db2a21146103b557806388aa8bee146103e1575f5ffd5b80634244a6e211610152578063648f6aeb1161012d578063648f6aeb1461030f5780636a2724621461032e5780636cefdbc71461034d5780636f9fb98a14610384575f5ffd5b80634244a6e2146102bd57806347e22b6c146102d157806351cff8d9146102f0575f5ffd5b806313af4035146101a357806317fe375f146101c457806329d84e58146101f95780632a5c792a146102285780632b888f0a146102495780632ff2e9dc14610292575f5ffd5b3661019f57005b5f5ffd5b3480156101ae575f5ffd5b506101c26101bd366004612d5c565b6105a2565b005b3480156101cf575f5ffd5b506101e36101de366004612d5c565b610640565b6040516101f09190612e2a565b60405180910390f35b348015610204575f5ffd5b50610218610213366004612d5c565b610766565b6040516101f09493929190612f5a565b348015610233575f5ffd5b5061023c610aa2565b6040516101f09190612fb1565b348015610254575f5ffd5b50610268610263366004612d5c565b610b02565b6040805195865260208601949094529284019190915260608301521515608082015260a0016101f0565b34801561029d575f5ffd5b506102af69d3c21bcecceda100000081565b6040519081526020016101f0565b3480156102c8575f5ffd5b506008546102af565b3480156102dc575f5ffd5b506102af6102eb3660046130a7565b610cef565b3480156102fb575f5ffd5b506101c261030a366004612d5c565b610d46565b34801561031a575f5ffd5b506101c26103293660046131c3565b610e91565b348015610339575f5ffd5b506101c26103483660046131da565b610edf565b348015610358575f5ffd5b50600f5461036c906001600160a01b031681565b6040516001600160a01b0390911681526020016101f0565b34801561038f575f5ffd5b50476102af565b3480156103a1575f5ffd5b506102af6103b0366004612d5c565b611372565b3480156103c0575f5ffd5b506103d46103cf366004612d5c565b6114f4565b6040516101f0919061320a565b3480156103ec575f5ffd5b506104006103fb366004612d5c565b611650565b6040516101f095949392919061321c565b34801561041c575f5ffd5b506102af60105481565b6101c26104343660046131da565b611833565b348015610444575f5ffd5b50610458610453366004612d5c565b611fd6565b6040516101f0929190613252565b6101c261047436600461327f565b6120b6565b348015610484575f5ffd5b50610498610493366004612d5c565b61267d565b604080519687526020870195909552938501929092526001600160a01b03166060840152608083015260a082015260c0016101f0565b3480156104d9575f5ffd5b506104ed6104e8366004612d5c565b61281c565b6040516101f09e9d9c9b9a999897969594939291906132ca565b348015610512575f5ffd5b506101c261052136600461327f565b612926565b348015610531575f5ffd5b506101c2610540366004612d5c565b612a42565b348015610550575f5ffd5b506101c261055f366004613368565b612ad7565b34801561056f575f5ffd5b506101c261057e366004613368565b612b36565b34801561058e575f5ffd5b506101c261059d3660046131c3565b612b95565b6001546001600160a01b031633146105d55760405162461bcd60e51b81526004016105cc90613388565b60405180910390fd5b6001600160a01b03811661061e5760405162461bcd60e51b815260206004820152601060248201526f4e6f6e207a65726f204164647265737360801b60448201526064016105cc565b600180546001600160a01b0319166001600160a01b0392909216919091179055565b6001600160a01b0381165f908152600d60209081526040808320600e01805482518185028101850190935280835260609492939192909184015b8282101561075b575f84815260209081902060408051606081019091526003850290910180546001600160a01b0316825260018101805492939192918401916106c2906133ab565b80601f01602080910402602001604051908101604052809291908181526020018280546106ee906133ab565b80156107395780601f1061071057610100808354040283529160200191610739565b820191905f5260205f20905b81548152906001019060200180831161071c57829003601f168201915b505050505081526020016002820154815250508152602001906001019061067a565b505050509050919050565b61076e612cc9565b6001600160a01b038083165f908152600d602090815260409182902082516101c081018452815485168152600182015492810192909252600281015492820192909252600382015460608281019190915260048301546080830152600583015460a0830152600683015460c0830152600783015460ff16151560e083015260088301546101008301526009830154610120830152600a830154610140830152600b830154909316610160820152600c820180548493849390928392600e840192600f85019260108601928691610180840191610849906133ab565b80601f0160208091040260200160405190810160405280929190818152602001828054610875906133ab565b80156108c05780601f10610897576101008083540402835291602001916108c0565b820191905f5260205f20905b8154815290600101906020018083116108a357829003601f168201915b5050509183525050600d919091015460ff1615156020918201528454604080518284028101840190915281815292965085915f9084015b828210156109d8575f84815260209081902060408051606081019091526003850290910180546001600160a01b03168252600181018054929391929184019161093f906133ab565b80601f016020809104026020016040519081016040528092919081815260200182805461096b906133ab565b80156109b65780601f1061098d576101008083540402835291602001916109b6565b820191905f5260205f20905b81548152906001019060200180831161099957829003601f168201915b50505050508152602001600282015481525050815260200190600101906108f7565b50505050925081805480602002602001604051908101604052809291908181526020018280548015610a3157602002820191905f5260205f20905b81546001600160a01b03168152600190910190602001808311610a13575b5050505050915080805480602002602001604051908101604052809291908181526020018280548015610a8b57602002820191905f5260205f20905b81546001600160a01b03168152600190910190602001808311610a6d575b505050505090509450945094509450509193509193565b6060600b805480602002602001604051908101604052809291908181526020018280548015610af857602002820191905f5260205f20905b81546001600160a01b03168152600190910190602001808311610ada575b5050505050905090565b6001600160a01b038082165f908152600c6020818152604080842081516101c0810183528154871681526001820154938101939093526002810154918301919091526003810154606083015260048101546080830152600581015460a0830152600681015460c0830152600781015460ff16151560e083015260088101546101008301526009810154610120830152600a810154610140830152600b81015490941661016082015290830180549293849384938493849384939091610180840191610bcc906133ab565b80601f0160208091040260200160405190810160405280929190818152602001828054610bf8906133ab565b8015610c435780601f10610c1a57610100808354040283529160200191610c43565b820191905f5260205f20905b815481529060010190602001808311610c2657829003601f168201915b5050509183525050600d919091015460ff161515602090910152606081015160a082015160408301519293509091610c7b91906133f7565b610c85919061340e565b600654909450610c968560646133f7565b610ca0919061340e565b600f549096506001600160a01b031615610cd157601054610cc28560646133f7565b610ccc919061340e565b610cd3565b5f5b60808201516101a0909201519698909750939590945092915050565b60208201515f9081610d01848361342d565b90505f85602001518660400151610d1891906133f7565b90505f610d25838361340e565b90505f876040015182610d38919061342d565b955050505050505b92915050565b6001546001600160a01b03163314610d705760405162461bcd60e51b81526004016105cc90613388565b6001600160a01b0381165f908152600c60205260409020600781015460ff161515600114610dd65760405162461bcd60e51b815260206004820152601360248201527214da1bdd5b190810994810dbdb5c1b195d1959606a1b60448201526064016105cc565b60015460048201546040516001600160a01b039092169181156108fc0291905f818181858888f19350505050158015610e11573d5f5f3e3d5ffd5b50600154600382015460405163a9059cbb60e01b81526001600160a01b03928316600482015260248101919091529083169063a9059cbb906044016020604051808303815f875af1158015610e68573d5f5f3e3d5ffd5b505050506040513d601f19601f82011682018060405250810190610e8c9190613440565b505050565b6001546001600160a01b03163314610ebb5760405162461bcd60e51b81526004016105cc90613388565b5f8111610eda5760405162461bcd60e51b81526004016105cc9061345b565b600655565b6001600160a01b0383165f908152600c60205260409020600781015460ff1615610f425760405162461bcd60e51b815260206004820152601460248201527314da1bdd5b1908139bdd0810dbdb5c1b195d195960621b60448201526064016105cc565b5f8311610f615760405162461bcd60e51b81526004016105cc9061345b565b604080516101c08101825282546001600160a01b039081168252600184015460208301526002840154928201929092526003830154606082015260048301546080820152600583015460a0820152600683015460c0820152600783015460ff16151560e082015260088301546101008201526009830154610120820152600a830154610140820152600b830154909116610160820152600c820180545f926110ad9290918591610180840191611016906133ab565b80601f0160208091040260200160405190810160405280929190818152602001828054611042906133ab565b801561108d5780601f106110645761010080835404028352916020019161108d565b820191905f5260205f20905b81548152906001019060200180831161107057829003601f168201915b5050509183525050600d919091015460ff16151560209091015285610cef565b905080826004015410156110c2575060048101545b828110156111125760405162461bcd60e51b815260206004820152601960248201527f53686f756c64204265204c6172676572207468616e204d696e0000000000000060448201526064016105cc565b5f6127108260075461112491906133f7565b61112e919061340e565b6002546040519192506001600160a01b03169082156108fc029083905f818181858888f19350505050158015611166573d5f5f3e3d5ffd5b50336108fc611175838561342d565b6040518115909202915f818181858888f1935050505015801561119a573d5f5f3e3d5ffd5b506040516323b872dd60e01b8152336004820152306024820152604481018690526001600160a01b038716906323b872dd906064016020604051808303815f875af11580156111eb573d5f5f3e3d5ffd5b505050506040513d601f19601f8201168201806040525081019061120f9190613440565b506001600160a01b0386165f908152600e6020908152604080832033845290915290205460ff16611299576001600160a01b0386165f818152600d602090815260408083206010018054600181810183559185528385200180546001600160a01b03191633908117909155948452600e8352818420948452939091529020805460ff191690911790555b84836003015f8282546112ac9190613492565b9250508190555084836001015f8282546112c69190613492565b9250508190555081836002015f8282546112e0919061342d565b9250508190555081836004015f8282546112fa919061342d565b90915550506002830154600184015460408051858152602081018990525f81830152426060820152608081019390935260a08301919091525133916001600160a01b038916917f671f6af1a2244f88c1a5e6c6310f86653d313027950723ffc12387348a9ed8b39181900360c00190a3505050505050565b6001600160a01b038082165f908152600c6020818152604080842081516101c0810183528154871681526001820154938101939093526002810154918301919091526003810154606083015260048101546080830152600581015460a0830152600681015460c0830152600781015460ff16151560e083015260088101546101008301526009810154610120830152600a810154610140830152600b8101549094166101608201529083018054929384939091610180840191611434906133ab565b80601f0160208091040260200160405190810160405280929190818152602001828054611460906133ab565b80156114ab5780601f10611482576101008083540402835291602001916114ab565b820191905f5260205f20905b81548152906001019060200180831161148e57829003601f168201915b5050509183525050600d919091015460ff1615156020918201528101516040820151919250906114e390670de0b6b3a76400006133f7565b6114ed919061340e565b9392505050565b6114fc612cc9565b6001600160a01b038083165f908152600c602081815260409283902083516101c0810185528154861681526001820154928101929092526002810154938201939093526003830154606082015260048301546080820152600583015460a0820152600683015460c0820152600783015460ff16151560e082015260088301546101008201526009830154610120820152600a830154610140820152600b83015490931661016084015281018054610180840191906115b9906133ab565b80601f01602080910402602001604051908101604052809291908181526020018280546115e5906133ab565b80156116305780601f1061160757610100808354040283529160200191611630565b820191905f5260205f20905b81548152906001019060200180831161161357829003601f168201915b5050509183525050600d919091015460ff16151560209091015292915050565b611658612cc9565b5f5f5f5f5f5f5f5f5f61166a8b610b02565b94509450945094509450600c5f8c6001600160a01b03166001600160a01b031681526020019081526020015f208585858584604051806101c00160405290815f82015f9054906101000a90046001600160a01b03166001600160a01b03166001600160a01b03168152602001600182015481526020016002820154815260200160038201548152602001600482015481526020016005820154815260200160068201548152602001600782015f9054906101000a900460ff161515151581526020016008820154815260200160098201548152602001600a8201548152602001600b82015f9054906101000a90046001600160a01b03166001600160a01b03166001600160a01b03168152602001600c82018054611787906133ab565b80601f01602080910402602001604051908101604052809291908181526020018280546117b3906133ab565b80156117fe5780601f106117d5576101008083540402835291602001916117fe565b820191905f5260205f20905b8154815290600101906020018083116117e157829003601f168201915b5050509183525050600d919091015460ff1615156020909101529e50929c50909a509850965050505050505091939590929450565b61183b612be3565b6001600160a01b0383165f908152600c602052604090208261189f5760405162461bcd60e51b815260206004820152601a60248201527f53686f756c64206265206c6172676572207468616e207a65726f00000000000060448201526064016105cc565b600781015460ff16156118e85760405162461bcd60e51b8152602060048201526011602482015270151c98591a5b99c818dbdb5c1b195d1959607a1b60448201526064016105cc565b80546001600160a01b03166119345760405162461bcd60e51b8152602060048201526012602482015271141bdbdb08191bd95cdb89dd08195e1a5cdd60721b60448201526064016105cc565b5f838260030154611945919061342d565b90505f826005015482606461195a91906133f7565b611964919061340e565b905060148110156119c25760405162461bcd60e51b815260206004820152602260248201527f43616e6e6f7420627579206d6f7265207468616e20383025206f6620737570706044820152616c7960f01b60648201526084016105cc565b604080516101c08101825284546001600160a01b039081168252600186015460208301526002860154928201929092526003850154606082015260048501546080820152600585015460a0820152600685015460c0820152600785015460ff16151560e082015260088501546101008201526009850154610120820152600a850154610140820152600b850154909116610160820152600c840180545f92611b0e9290918791610180840191611a77906133ab565b80601f0160208091040260200160405190810160405280929190818152602001828054611aa3906133ab565b8015611aee5780601f10611ac557610100808354040283529160200191611aee565b820191905f5260205f20905b815481529060010190602001808311611ad157829003601f168201915b5050509183525050600d919091015460ff16151560209091015287610cef565b905084811115611b545760405162461bcd60e51b81526020600482015260116024820152700a6d8d2e0e0c2ceca40e8dede40d0d2ced607b1b60448201526064016105cc565b80341015611b9c5760405162461bcd60e51b8152602060048201526015602482015274125b9cdd59999a58da595b9d08115512081cd95b9d605a1b60448201526064016105cc565b5f61271060075483611bae91906133f7565b611bb8919061340e565b90505f611bc5828461342d565b6002546040519192506001600160a01b03169083156108fc029084905f818181858888f19350505050158015611bfd573d5f5f3e3d5ffd5b5060405163a9059cbb60e01b8152336004820152602481018990526001600160a01b038a169063a9059cbb906044016020604051808303815f875af1158015611c48573d5f5f3e3d5ffd5b505050506040513d601f19601f82011682018060405250810190611c6c9190613440565b50426009870155600a86018054905f611c84836134a5565b919050555087866003015f828254611c9c919061342d565b9250508190555087866001015f828254611cb6919061342d565b9250508190555080866002015f828254611cd09190613492565b9250508190555080866004015f828254611cea9190613492565b90915550506003860154600587015460028801545f9291611d0a916133f7565b611d14919061340e565b90508660060154811180611d29575060148511155b15611d855760078701805460ff191660011790556040516001600160a01b038b169033907f50e82f857ece413f502ecf1e6db36e3f6f1c118bb444db8409896b1bf1d11e3d90611d7c9042815260200190565b60405180910390a35b6001600160a01b038a165f908152600e6020908152604080832033845290915290205460ff16611e0e576001600160a01b038a165f818152600d60209081526040808320600f018054600181810183559185528385200180546001600160a01b03191633908117909155948452600e8352818420948452939091529020805460ff191690911790555b600287015460018089015460408051888152602081018e905280820193909352426060840152608083019390935260a0820152905133916001600160a01b038d16917f671f6af1a2244f88c1a5e6c6310f86653d313027950723ffc12387348a9ed8b39181900360c00190a3896001600160a01b03167fac7b695c6873047ad50339f850f4ae3f6b8f6ef63ed1a8b22f7d36a1c6bd46f3611eae8c611372565b604080519182524260208301520160405180910390a283341115611f0157336108fc611eda863461342d565b6040518115909202915f818181858888f19350505050158015611eff573d5f5f3e3d5ffd5b505b5f876003015488600501548960020154611f1b91906133f7565b611f25919061340e565b9050611f318b82612c0b565b8a6001600160a01b03167f19d0c5fbae9f3d24d5bf0d9b58f75f2a1266cd98c3d04e48fbf6a87c52b1c405600654836064611f6c91906133f7565b611f76919061340e565b600f546001600160a01b031615611fa457601054611f958560646133f7565b611f9f919061340e565b611fa6565b5f5b604080519283526020830191909152429082015260600160405180910390a25050505050505050610e8c60015f55565b6001600160a01b0381165f908152600d6020908152604091829020600f8101805484518185028101850190955280855260609485949293601001929091849183018282801561204c57602002820191905f5260205f20905b81546001600160a01b0316815260019091019060200180831161202e575b50505050509150808054806020026020016040519081016040528092919081815260200182805480156120a657602002820191905f5260205f20905b81546001600160a01b03168152600190910190602001808311612088575b5050505050905091509150915091565b6120be612be3565b6008543410156121105760405162461bcd60e51b815260206004820152601860248201527f437265617465506f6f6c3a2056616c756520416d6f756e74000000000000000060448201526064016105cc565b6002546001600160a01b03166121685760405162461bcd60e51b815260206004820152601c60248201527f437265617465506f6f6c3a204e6f6e205a65726f20416464726573730000000060448201526064016105cc565b6001600160a01b038281165f908152600c602052604090205416156121c55760405162461bcd60e51b8152602060048201526013602482015272506f6f6c20616c72656164792065786973747360681b60448201526064016105cc565b6040516370a0823160e01b81523360048201525f906001600160a01b038416906370a0823190602401602060405180830381865afa158015612209573d5f5f3e3d5ffd5b505050506040513d601f19601f8201168201806040525081019061222d91906134bd565b905069d3c21bcecceda1000000811461227f5760405162461bcd60e51b8152602060048201526014602482015273496e76616c696420746f6b656e20737570706c7960601b60448201526064016105cc565b6040516323b872dd60e01b8152336004820152306024820152604481018290526001600160a01b038416906323b872dd906064016020604051808303815f875af11580156122cf573d5f5f3e3d5ffd5b505050506040513d601f19601f820116820180604052508101906122f39190613440565b6123375760405162461bcd60e51b8152602060048201526015602482015274151bdad95b881d1c985b9cd9995c8819985a5b1959605a1b60448201526064016105cc565b6002546008546040516001600160a01b039092169181156108fc0291905f818181858888f19350505050158015612370573d5f5f3e3d5ffd5b50604051806101c00160405280846001600160a01b0316815260200182815260200160045481526020018281526020015f815260200182815260200160065481526020015f151581526020014281526020014281526020015f8152602001336001600160a01b031681526020018381526020015f1515815250600c5f856001600160a01b03166001600160a01b031681526020019081526020015f205f820151815f015f6101000a8154816001600160a01b0302191690836001600160a01b031602179055506020820151816001015560408201518160020155606082015181600301556080820151816004015560a0820151816005015560c0820151816006015560e0820151816007015f6101000a81548160ff0219169083151502179055506101008201518160080155610120820151816009015561014082015181600a015561016082015181600b015f6101000a8154816001600160a01b0302191690836001600160a01b0316021790555061018082015181600c0190816124f5919061351f565b506101a09190910151600d918201805491151560ff19928316179055600b8054600181810183557f0175b7a638427703f0dbe7bb9bbf987a2551717b34e79f33b5b1008d1fa01db990910180546001600160a01b03808a166001600160a01b031992831681179093555f928352600c602081815260408086209990915290932087548154841690831617815587850154948101949094556002878101549085015560038088015490850155600480880154908501556005808801549085015560068088015490850155600780880154908501805460ff92909216151591909716179095556008808701549084015560098087015490840155600a808701549084015585840154938301805490911693909416929092179092558181019061261e908401826135dd565b50600d918201549101805460ff191660ff909216151591909117905560405133906001600160a01b038516907fdbd2a1ea6808362e6adbec4db4969cbc11e3b0b28fb6c74cb342defaaf1daada905f90a35061267960015f55565b5050565b6001600160a01b038082165f908152600c6020818152604080842081516101c0810183528154871681526001820154938101939093526002810154918301919091526003810154606083015260048101546080830152600581015460a0830152600681015460c0830152600781015460ff16151560e083015260088101546101008301526009810154610120830152600a810154610140830152600b8101549094166101608201529083018054929384938493849384938493849392610180840191612748906133ab565b80601f0160208091040260200160405190810160405280929190818152602001828054612774906133ab565b80156127bf5780601f10612796576101008083540402835291602001916127bf565b820191905f5260205f20905b8154815290600101906020018083116127a257829003601f168201915b5050509183525050600d919091015460ff16151560209091015261010081015161012082015161014083015161016084015193945091929091906128028c611372565b606090950151939c929b5090995097509195509350915050565b600c60208190525f918252604090912080546001820154600283015460038401546004850154600586015460068701546007880154600889015460098a0154600a8b0154600b8c01549c8c0180546001600160a01b039c8d169e9b9d9a9c999b989a9799969860ff90961697949693959294929093169261289c906133ab565b80601f01602080910402602001604051908101604052809291908181526020018280546128c8906133ab565b80156129135780601f106128ea57610100808354040283529160200191612913565b820191905f5260205f20905b8154815290600101906020018083116128f657829003601f168201915b505050600d909301549192505060ff168e565b5f8151116129765760405162461bcd60e51b815260206004820152601760248201527f436f6d6d656e742063616e6e6f7420626520656d70747900000000000000000060448201526064016105cc565b610118815111156129bc5760405162461bcd60e51b815260206004820152601060248201526f436f6d6d656e7420746f6f206c6f6e6760801b60448201526064016105cc565b60408051606081018252338152602080820184815242838501526001600160a01b038681165f908152600d8452948520600e0180546001808201835591875293909520845160039094020180546001600160a01b03191693909116929092178255519192839290820190612a30908261351f565b50604082015181600201555050505050565b6001546001600160a01b03163314612a6c5760405162461bcd60e51b81526004016105cc90613388565b6001600160a01b038116612ab55760405162461bcd60e51b815260206004820152601060248201526f4e6f6e207a65726f204164647265737360801b60448201526064016105cc565b600280546001600160a01b0319166001600160a01b0392909216919091179055565b6001546001600160a01b03163314612b015760405162461bcd60e51b81526004016105cc90613388565b5f82118015612b0f57505f81115b612b2b5760405162461bcd60e51b81526004016105cc9061345b565b600791909155600855565b6001546001600160a01b03163314612b605760405162461bcd60e51b81526004016105cc90613388565b5f81118015612b6e57505f82115b612b8a5760405162461bcd60e51b81526004016105cc9061345b565b600391909155600455565b6001546001600160a01b03163314612bbf5760405162461bcd60e51b81526004016105cc90613388565b5f8111612bde5760405162461bcd60e51b81526004016105cc9061345b565b600555565b60025f5403612c0557604051633ee5aeb560e01b815260040160405180910390fd5b60025f55565b60105481111561267957600f546001600160a01b031615612c4b57600f546001600160a01b03165f908152600c60205260409020600d01805460ff191690555b600f80546001600160a01b0319166001600160a01b03841690811790915560108290555f818152600c6020908152604091829020600d01805460ff19166001179055815184815242918101919091527fb269857d843f7c95635daa6972f6bd4cb3565aabcbce8fe9d1442fd2d34ed297910160405180910390a25050565b604051806101c001604052805f6001600160a01b031681526020015f81526020015f81526020015f81526020015f81526020015f81526020015f81526020015f151581526020015f81526020015f81526020015f81526020015f6001600160a01b03168152602001606081526020015f151581525090565b80356001600160a01b0381168114612d57575f5ffd5b919050565b5f60208284031215612d6c575f5ffd5b6114ed82612d41565b5f81518084528060208401602086015e5f602082860101526020601f19601f83011685010191505092915050565b5f82825180855260208501945060208160051b830101602085015f5b83811015612e1e57848303601f19018852815180516001600160a01b03168452602080820151606091860182905290612dfa90860182612d75565b60409283015195909201949094526020988901989093509190910190600101612dbf565b50909695505050505050565b602081525f6114ed6020830184612da3565b80516001600160a01b031682526020810151602083015260408101516040830152606081015160608301526080810151608083015260a081015160a083015260c081015160c08301525f60e0820151612e9960e085018215159052565b50610100820151610100840152610120820151610120840152610140820151610140840152610160820151612eda6101608501826001600160a01b03169052565b506101808201516101c0610180850152612ef86101c0850182612d75565b90506101a0830151612f0f6101a086018215159052565b509392505050565b5f8151808452602084019350602083015f5b82811015612f505781516001600160a01b0316865260209586019590910190600101612f29565b5093949350505050565b608081525f612f6c6080830187612e3c565b8281036020840152612f7e8187612da3565b90508281036040840152612f928186612f17565b90508281036060840152612fa68185612f17565b979650505050505050565b602081525f6114ed6020830184612f17565b634e487b7160e01b5f52604160045260245ffd5b6040516101c0810167ffffffffffffffff81118282101715612ffb57612ffb612fc3565b60405290565b801515811461300e575f5ffd5b50565b8035612d5781613001565b5f82601f83011261302b575f5ffd5b813567ffffffffffffffff81111561304557613045612fc3565b604051601f8201601f19908116603f0116810167ffffffffffffffff8111828210171561307457613074612fc3565b60405281815283820160200185101561308b575f5ffd5b816020850160208301375f918101602001919091529392505050565b5f5f604083850312156130b8575f5ffd5b823567ffffffffffffffff8111156130ce575f5ffd5b83016101c081860312156130e0575f5ffd5b6130e8612fd7565b6130f182612d41565b81526020828101359082015260408083013590820152606080830135908201526080808301359082015260a0808301359082015260c0808301359082015261313b60e08301613011565b60e082015261010082810135908201526101208083013590820152610140808301359082015261316e6101608301612d41565b61016082015261018082013567ffffffffffffffff81111561318e575f5ffd5b61319a8782850161301c565b610180830152506131ae6101a08301613011565b6101a082015295602094909401359450505050565b5f602082840312156131d3575f5ffd5b5035919050565b5f5f5f606084860312156131ec575f5ffd5b6131f584612d41565b95602085013595506040909401359392505050565b602081525f6114ed6020830184612e3c565b60a081525f61322e60a0830188612e3c565b90508560208301528460408301528360608301528260808301529695505050505050565b604081525f6132646040830185612f17565b82810360208401526132768185612f17565b95945050505050565b5f5f60408385031215613290575f5ffd5b61329983612d41565b9150602083013567ffffffffffffffff8111156132b4575f5ffd5b6132c08582860161301c565b9150509250929050565b60018060a01b038f1681528d60208201528c60408201528b60608201528a60808201528960a08201528860c082015261330760e082018915159052565b8661010082015285610120820152846101408201526133326101608201856001600160a01b03169052565b6101c06101808201525f61334a6101c0830185612d75565b8315156101a084015290509f9e505050505050505050505050505050565b5f5f60408385031215613379575f5ffd5b50508035926020909101359150565b6020808252600990820152682737ba1027bbb732b960b91b604082015260600190565b600181811c908216806133bf57607f821691505b6020821081036133dd57634e487b7160e01b5f52602260045260245ffd5b50919050565b634e487b7160e01b5f52601160045260245ffd5b8082028115828204841417610d4057610d406133e3565b5f8261342857634e487b7160e01b5f52601260045260245ffd5b500490565b81810381811115610d4057610d406133e3565b5f60208284031215613450575f5ffd5b81516114ed81613001565b60208082526017908201527f53686f756c64204c6172676572207468616e207a65726f000000000000000000604082015260600190565b80820180821115610d4057610d406133e3565b5f600182016134b6576134b66133e3565b5060010190565b5f602082840312156134cd575f5ffd5b5051919050565b601f821115610e8c57805f5260205f20601f840160051c810160208510156134f95750805b601f840160051c820191505b81811015613518575f8155600101613505565b5050505050565b815167ffffffffffffffff81111561353957613539612fc3565b61354d8161354784546133ab565b846134d4565b6020601f821160018114613582575f83156135685750848201515b600184901b5f19600386901b1c198216175b855550613518565b5f84815260208120601f198516915b828110156135b15787850151825560209485019460019092019101613591565b50848210156135ce57868401515f19600387901b60f8161c191681555b50505050600190811b01905550565b8181036135e8575050565b6135f282546133ab565b67ffffffffffffffff81111561360a5761360a612fc3565b6136188161354784546133ab565b5f601f821160018114613647575f8315613568575081850154600184901b5f19600386901b1c1982161761357a565b5f8581526020808220868352908220601f198616925b8381101561367d578286015482556001958601959091019060200161365d565b508583101561369a57818501545f19600388901b60f8161c191681555b5050505050600190811b0190555056fea2646970667358221220cca8c0a79cffb099f3af56d56dcabad87c41bcac21ead0be7e86c0d247de8d7464736f6c634300081c0033","linkReferences":{}},"methodIdentifiers":{"INITIAL_SUPPLY()":"2ff2e9dc","addComment(address,string)":"e2005b98","bondingCurve(address)":"d0c58e48","buy(address,uint256,uint256)":"a59ac6dd","calculateCurrentPrice(address)":"7731e696","calculateEthCost((address,uint256,uint256,uint256,uint256,uint256,uint256,bool,uint256,uint256,uint256,address,string,bool),uint256)":"47e22b6c","createPool(address,string)":"c3629dbe","currentKingToken()":"6cefdbc7","getAllTokens()":"2a5c792a","getBondingCurve(address)":"83db2a21","getComments(address)":"17fe375f","getContractBalance()":"6f9fb98a","getCreateFee()":"4244a6e2","getTokenDetail(address)":"29d84e58","getTokenDetails(address)":"88aa8bee","getTokenProgress(address)":"2b888f0a","getTokenStats(address)":"ca88d5c5","getTraders(address)":"c16c72c0","kingOfHillMcap()":"a0d8d57b","sell(address,uint256,uint256)":"6a272462","setFeeAmount(uint256,uint256)":"e8dc132b","setFeeRecipient(address)":"e74b981b","setInitialVirtualReserves(uint256,uint256)":"efc2ead8","setMcapLimit(uint256)":"648f6aeb","setOwner(address)":"13af4035","setTotalSupply(uint256)":"f7ea7a3d","withdraw(address)":"51cff8d9"},"id":0}