{"abi":[{"type":"constructor","inputs":[],"stateMutability":"nonpayable"},{"type":"function","name":"INITIAL_SUPPLY","inputs":[],"outputs":[{"name":"","type":"uint256","internalType":"uint256"}],"stateMutability":"view"},{"type":"function","name":"contractAddress","inputs":[],"outputs":[{"name":"","type":"address","internalType":"address"}],"stateMutability":"view"},{"type":"function","name":"deployERC20Token","inputs":[{"name":"name","type":"string","internalType":"string"},{"name":"ticker","type":"string","internalType":"string"},{"name":"description","type":"string","internalType":"string"}],"outputs":[],"stateMutability":"payable"},{"type":"function","name":"getDeployedTokens","inputs":[],"outputs":[{"name":"","type":"tuple[]","internalType":"struct TokenFactory.TokenStructure[]","components":[{"name":"tokenAddress","type":"address","internalType":"address"},{"name":"tokenName","type":"string","internalType":"string"},{"name":"tokenSymbol","type":"string","internalType":"string"},{"name":"description","type":"string","internalType":"string"}]}],"stateMutability":"view"},{"type":"function","name":"getTotalFeeRequired","inputs":[],"outputs":[{"name":"","type":"uint256","internalType":"uint256"}],"stateMutability":"view"},{"type":"function","name":"owner","inputs":[],"outputs":[{"name":"","type":"address","internalType":"address"}],"stateMutability":"view"},{"type":"function","name":"setCreationFee","inputs":[{"name":"newFee","type":"uint256","internalType":"uint256"}],"outputs":[],"stateMutability":"nonpayable"},{"type":"function","name":"setPoolAddress","inputs":[{"name":"newAddr","type":"address","internalType":"address"}],"outputs":[],"stateMutability":"nonpayable"},{"type":"function","name":"tokenCreationFee","inputs":[],"outputs":[{"name":"","type":"uint256","internalType":"uint256"}],"stateMutability":"view"},{"type":"function","name":"tokens","inputs":[{"name":"","type":"uint256","internalType":"uint256"}],"outputs":[{"name":"tokenAddress","type":"address","internalType":"address"},{"name":"tokenName","type":"string","internalType":"string"},{"name":"tokenSymbol","type":"string","internalType":"string"},{"name":"description","type":"string","internalType":"string"}],"stateMutability":"view"},{"type":"function","name":"transferOwnership","inputs":[{"name":"newOwner","type":"address","internalType":"address"}],"outputs":[],"stateMutability":"nonpayable"},{"type":"function","name":"withdrawFees","inputs":[],"outputs":[],"stateMutability":"nonpayable"},{"type":"event","name":"CreationFeeUpdated","inputs":[{"name":"oldFee","type":"uint256","indexed":false,"internalType":"uint256"},{"name":"newFee","type":"uint256","indexed":false,"internalType":"uint256"}],"anonymous":false},{"type":"event","name":"OwnershipTransferred","inputs":[{"name":"previousOwner","type":"address","indexed":true,"internalType":"address"},{"name":"newOwner","type":"address","indexed":true,"internalType":"address"}],"anonymous":false},{"type":"event","name":"TokenCreated","inputs":[{"name":"tokenAddress","type":"address","indexed":true,"internalType":"address"},{"name":"name","type":"string","indexed":false,"internalType":"string"},{"name":"symbol","type":"string","indexed":false,"internalType":"string"},{"name":"creator","type":"address","indexed":true,"internalType":"address"}],"anonymous":false}],"bytecode":{"object":"0x6080604052662386f26fc100005f553480156018575f5ffd5b50600280546001600160a01b03191633179055611dd3806100385f395ff3fe6080604052600436106100a5575f3560e01c8063b2b8cf5811610062578063b2b8cf581461018a578063b7d862251461019e578063e9e15b4f146101bd578063f2fde38b146101dc578063f6b4dfb4146101fb578063fcd0508f1461021a575f5ffd5b80632ff2e9dc146100a9578063476343ee146100d95780634f64b2be146100ef578063540a9f6f1461011e578063622ae7aa146101325780638da5cb5b14610153575b5f5ffd5b3480156100b4575f5ffd5b506100c669d3c21bcecceda100000081565b6040519081526020015b60405180910390f35b3480156100e4575f5ffd5b506100ed61022d565b005b3480156100fa575f5ffd5b5061010e610109366004610d83565b6102df565b6040516100d09493929190610dc8565b348015610129575f5ffd5b506100c65f5481565b34801561013d575f5ffd5b506101466104b5565b6040516100d09190610e1c565b34801561015e575f5ffd5b50600254610172906001600160a01b031681565b6040516001600160a01b0390911681526020016100d0565b348015610195575f5ffd5b506100c66106d8565b3480156101a9575f5ffd5b506100ed6101b8366004610d83565b610754565b3480156101c8575f5ffd5b506100ed6101d7366004610ed5565b6107bd565b3480156101e7575f5ffd5b506100ed6101f6366004610ed5565b610852565b348015610206575f5ffd5b50600154610172906001600160a01b031681565b6100ed610228366004610fa1565b61092d565b6002546001600160a01b031633146102605760405162461bcd60e51b81526004016102579061102f565b60405180910390fd5b47806102a45760405162461bcd60e51b81526020600482015260136024820152724e6f206665657320746f20776974686472617760681b6044820152606401610257565b6002546040516001600160a01b039091169082156108fc029083905f818181858888f193505050501580156102db573d5f5f3e3d5ffd5b5050565b600381815481106102ee575f80fd5b5f918252602090912060049091020180546001820180546001600160a01b0390921693509061031c90611052565b80601f016020809104026020016040519081016040528092919081815260200182805461034890611052565b80156103935780601f1061036a57610100808354040283529160200191610393565b820191905f5260205f20905b81548152906001019060200180831161037657829003601f168201915b5050505050908060020180546103a890611052565b80601f01602080910402602001604051908101604052809291908181526020018280546103d490611052565b801561041f5780601f106103f65761010080835404028352916020019161041f565b820191905f5260205f20905b81548152906001019060200180831161040257829003601f168201915b50505050509080600301805461043490611052565b80601f016020809104026020016040519081016040528092919081815260200182805461046090611052565b80156104ab5780601f10610482576101008083540402835291602001916104ab565b820191905f5260205f20905b81548152906001019060200180831161048e57829003601f168201915b5050505050905084565b60606003805480602002602001604051908101604052809291908181526020015f905b828210156106cf575f84815260209081902060408051608081019091526004850290910180546001600160a01b03168252600181018054929391929184019161052090611052565b80601f016020809104026020016040519081016040528092919081815260200182805461054c90611052565b80156105975780601f1061056e57610100808354040283529160200191610597565b820191905f5260205f20905b81548152906001019060200180831161057a57829003601f168201915b505050505081526020016002820180546105b090611052565b80601f01602080910402602001604051908101604052809291908181526020018280546105dc90611052565b80156106275780601f106105fe57610100808354040283529160200191610627565b820191905f5260205f20905b81548152906001019060200180831161060a57829003601f168201915b5050505050815260200160038201805461064090611052565b80601f016020809104026020016040519081016040528092919081815260200182805461066c90611052565b80156106b75780601f1061068e576101008083540402835291602001916106b7565b820191905f5260205f20905b81548152906001019060200180831161069a57829003601f168201915b505050505081525050815260200190600101906104d8565b50505050905090565b60015460408051632122537160e11b815290515f926001600160a01b031691634244a6e29160048083019260209291908290030181865afa15801561071f573d5f5f3e3d5ffd5b505050506040513d601f19601f82011682018060405250810190610743919061108a565b5f5461074f91906110a1565b905090565b6002546001600160a01b0316331461077e5760405162461bcd60e51b81526004016102579061102f565b5f5460408051918252602082018390527f5de302eeb1c80d4fb0c0953b692353f09ddf431411b8eb2034d5e85769561912910160405180910390a15f55565b6002546001600160a01b031633146107e75760405162461bcd60e51b81526004016102579061102f565b6001600160a01b0381166108305760405162461bcd60e51b815260206004820152601060248201526f4e6f6e207a65726f204164647265737360801b6044820152606401610257565b600180546001600160a01b0319166001600160a01b0392909216919091179055565b6002546001600160a01b0316331461087c5760405162461bcd60e51b81526004016102579061102f565b6001600160a01b0381166108d25760405162461bcd60e51b815260206004820152601d60248201527f4e6577206f776e657220697320746865207a65726f20616464726573730000006044820152606401610257565b6002546040516001600160a01b038084169216907f8be0079c531659141344cd1fd0a4f28419497f9722a3daafe3b4186f6b6457e0905f90a3600280546001600160a01b0319166001600160a01b0392909216919091179055565b6001546001600160a01b03166109855760405162461bcd60e51b815260206004820152601760248201527f50756d7046756e2061646472657373206e6f74207365740000000000000000006044820152606401610257565b60015460408051632122537160e11b815290515f926001600160a01b031691634244a6e29160048083019260209291908290030181865afa1580156109cc573d5f5f3e3d5ffd5b505050506040513d601f19601f820116820180604052508101906109f0919061108a565b9050805f546109ff91906110a1565b341015610a415760405162461bcd60e51b815260206004820152601060248201526f496e73756666696369656e742066656560801b6044820152606401610257565b5f848469d3c21bcecceda1000000604051610a5b90610d76565b610a67939291906110c6565b604051809103905ff080158015610a80573d5f5f3e3d5ffd5b50604080516080810182526001600160a01b0383811682526020820189815292820188905260608201879052600380546001810182555f9190915282517fc2575a0e9e593c00f959f8c92f12db2869c3395a3b0502d05e2516446f71f85b600490920291820180546001600160a01b031916919093161782559251939450909290917fc2575a0e9e593c00f959f8c92f12db2869c3395a3b0502d05e2516446f71f85c0190610b2f9082611147565b5060408201516002820190610b449082611147565b5060608201516003820190610b599082611147565b50506002545f80546040519193506001600160a01b0390921691908381818185875af1925050503d805f8114610baa576040519150601f19603f3d011682016040523d82523d5f602084013e610baf565b606091505b5050905080610bf65760405162461bcd60e51b8152602060048201526013602482015272119959481d1c985b9cd9995c8819985a5b1959606a1b6044820152606401610257565b60015460405163095ea7b360e01b81526001600160a01b03918216600482015269d3c21bcecceda100000060248201529083169063095ea7b3906044016020604051808303815f875af1158015610c4f573d5f5f3e3d5ffd5b505050506040513d601f19601f82011682018060405250810190610c739190611202565b610cbf5760405162461bcd60e51b815260206004820152601760248201527f50756d7046756e20617070726f76616c206661696c65640000000000000000006044820152606401610257565b6001546040516361b14edf60e11b81526001600160a01b039091169063c3629dbe908590610cf39086908990600401611221565b5f604051808303818588803b158015610d0a575f5ffd5b505af1158015610d1c573d5f5f3e3d5ffd5b5050505050336001600160a01b0316826001600160a01b03167f6596c1670eb3390048d23721809c3da5d3f531375ac0e2cab0f77a808ed643318888604051610d6692919061124c565b60405180910390a3505050505050565b610b248061127a83390190565b5f60208284031215610d93575f5ffd5b5035919050565b5f81518084528060208401602086015e5f602082860101526020601f19601f83011685010191505092915050565b6001600160a01b03851681526080602082018190525f90610deb90830186610d9a565b8281036040840152610dfd8186610d9a565b90508281036060840152610e118185610d9a565b979650505050505050565b5f602082016020835280845180835260408501915060408160051b8601019250602086015f5b82811015610ec957868503603f19018452815180516001600160a01b03168652602080820151608091880182905290610e7d90880182610d9a565b905060408201518782036040890152610e968282610d9a565b915050606082015191508681036060880152610eb28183610d9a565b965050506020938401939190910190600101610e42565b50929695505050505050565b5f60208284031215610ee5575f5ffd5b81356001600160a01b0381168114610efb575f5ffd5b9392505050565b634e487b7160e01b5f52604160045260245ffd5b5f82601f830112610f25575f5ffd5b813567ffffffffffffffff811115610f3f57610f3f610f02565b604051601f8201601f19908116603f0116810167ffffffffffffffff81118282101715610f6e57610f6e610f02565b604052818152838201602001851015610f85575f5ffd5b816020850160208301375f918101602001919091529392505050565b5f5f5f60608486031215610fb3575f5ffd5b833567ffffffffffffffff811115610fc9575f5ffd5b610fd586828701610f16565b935050602084013567ffffffffffffffff811115610ff1575f5ffd5b610ffd86828701610f16565b925050604084013567ffffffffffffffff811115611019575f5ffd5b61102586828701610f16565b9150509250925092565b6020808252600990820152682737ba1037bbb732b960b91b604082015260600190565b600181811c9082168061106657607f821691505b60208210810361108457634e487b7160e01b5f52602260045260245ffd5b50919050565b5f6020828403121561109a575f5ffd5b5051919050565b808201808211156110c057634e487b7160e01b5f52601160045260245ffd5b92915050565b606081525f6110d86060830186610d9a565b82810360208401526110ea8186610d9a565b915050826040830152949350505050565b601f82111561114257805f5260205f20601f840160051c810160208510156111205750805b601f840160051c820191505b8181101561113f575f815560010161112c565b50505b505050565b815167ffffffffffffffff81111561116157611161610f02565b6111758161116f8454611052565b846110fb565b6020601f8211600181146111a7575f83156111905750848201515b5f19600385901b1c1916600184901b17845561113f565b5f84815260208120601f198516915b828110156111d657878501518255602094850194600190920191016111b6565b50848210156111f357868401515f19600387901b60f8161c191681555b50505050600190811b01905550565b5f60208284031215611212575f5ffd5b81518015158114610efb575f5ffd5b6001600160a01b03831681526040602082018190525f9061124490830184610d9a565b949350505050565b604081525f61125e6040830185610d9a565b82810360208401526112708185610d9a565b9594505050505056fe608060405234801561000f575f5ffd5b50604051610b24380380610b2483398101604081905261002e91610264565b8282600361003c8382610355565b5060046100498282610355565b50505061005c338261006460201b60201c565b505050610434565b6001600160a01b0382166100925760405163ec442f0560e01b81525f60048201526024015b60405180910390fd5b61009d5f83836100a1565b5050565b6001600160a01b0383166100cb578060025f8282546100c0919061040f565b9091555061013b9050565b6001600160a01b0383165f908152602081905260409020548181101561011d5760405163391434e360e21b81526001600160a01b03851660048201526024810182905260448101839052606401610089565b6001600160a01b0384165f9081526020819052604090209082900390555b6001600160a01b03821661015757600280548290039055610175565b6001600160a01b0382165f9081526020819052604090208054820190555b816001600160a01b0316836001600160a01b03167fddf252ad1be2c89b69c2b068fc378daa952ba7f163c4a11628f55a4df523b3ef836040516101ba91815260200190565b60405180910390a3505050565b634e487b7160e01b5f52604160045260245ffd5b5f82601f8301126101ea575f5ffd5b81516001600160401b03811115610203576102036101c7565b604051601f8201601f19908116603f011681016001600160401b0381118282101715610231576102316101c7565b604052818152838201602001851015610248575f5ffd5b8160208501602083015e5f918101602001919091529392505050565b5f5f5f60608486031215610276575f5ffd5b83516001600160401b0381111561028b575f5ffd5b610297868287016101db565b602086015190945090506001600160401b038111156102b4575f5ffd5b6102c0868287016101db565b925050604084015190509250925092565b600181811c908216806102e557607f821691505b60208210810361030357634e487b7160e01b5f52602260045260245ffd5b50919050565b601f82111561035057805f5260205f20601f840160051c8101602085101561032e5750805b601f840160051c820191505b8181101561034d575f815560010161033a565b50505b505050565b81516001600160401b0381111561036e5761036e6101c7565b6103828161037c84546102d1565b84610309565b6020601f8211600181146103b4575f831561039d5750848201515b5f19600385901b1c1916600184901b17845561034d565b5f84815260208120601f198516915b828110156103e357878501518255602094850194600190920191016103c3565b508482101561040057868401515f19600387901b60f8161c191681555b50505050600190811b01905550565b8082018082111561042e57634e487b7160e01b5f52601160045260245ffd5b92915050565b6106e3806104415f395ff3fe608060405234801561000f575f5ffd5b5060043610610090575f3560e01c8063313ce56711610063578063313ce567146100fa57806370a082311461010957806395d89b4114610131578063a9059cbb14610139578063dd62ed3e1461014c575f5ffd5b806306fdde0314610094578063095ea7b3146100b257806318160ddd146100d557806323b872dd146100e7575b5f5ffd5b61009c610184565b6040516100a99190610553565b60405180910390f35b6100c56100c03660046105a3565b610214565b60405190151581526020016100a9565b6002545b6040519081526020016100a9565b6100c56100f53660046105cb565b61022d565b604051601281526020016100a9565b6100d9610117366004610605565b6001600160a01b03165f9081526020819052604090205490565b61009c610250565b6100c56101473660046105a3565b61025f565b6100d961015a366004610625565b6001600160a01b039182165f90815260016020908152604080832093909416825291909152205490565b60606003805461019390610656565b80601f01602080910402602001604051908101604052809291908181526020018280546101bf90610656565b801561020a5780601f106101e15761010080835404028352916020019161020a565b820191905f5260205f20905b8154815290600101906020018083116101ed57829003601f168201915b5050505050905090565b5f3361022181858561026c565b60019150505b92915050565b5f3361023a85828561027e565b6102458585856102fe565b506001949350505050565b60606004805461019390610656565b5f336102218185856102fe565b610279838383600161035b565b505050565b6001600160a01b038381165f908152600160209081526040808320938616835292905220545f1981146102f857818110156102ea57604051637dc7a0d960e11b81526001600160a01b038416600482015260248101829052604481018390526064015b60405180910390fd5b6102f884848484035f61035b565b50505050565b6001600160a01b03831661032757604051634b637e8f60e11b81525f60048201526024016102e1565b6001600160a01b0382166103505760405163ec442f0560e01b81525f60048201526024016102e1565b61027983838361042d565b6001600160a01b0384166103845760405163e602df0560e01b81525f60048201526024016102e1565b6001600160a01b0383166103ad57604051634a1406b160e11b81525f60048201526024016102e1565b6001600160a01b038085165f90815260016020908152604080832093871683529290522082905580156102f857826001600160a01b0316846001600160a01b03167f8c5be1e5ebec7d5bd14f71427d1e84f3dd0314c0f7b2291e5b200ac8c7c3b9258460405161041f91815260200190565b60405180910390a350505050565b6001600160a01b038316610457578060025f82825461044c919061068e565b909155506104c79050565b6001600160a01b0383165f90815260208190526040902054818110156104a95760405163391434e360e21b81526001600160a01b038516600482015260248101829052604481018390526064016102e1565b6001600160a01b0384165f9081526020819052604090209082900390555b6001600160a01b0382166104e357600280548290039055610501565b6001600160a01b0382165f9081526020819052604090208054820190555b816001600160a01b0316836001600160a01b03167fddf252ad1be2c89b69c2b068fc378daa952ba7f163c4a11628f55a4df523b3ef8360405161054691815260200190565b60405180910390a3505050565b602081525f82518060208401528060208501604085015e5f604082850101526040601f19601f83011684010191505092915050565b80356001600160a01b038116811461059e575f5ffd5b919050565b5f5f604083850312156105b4575f5ffd5b6105bd83610588565b946020939093013593505050565b5f5f5f606084860312156105dd575f5ffd5b6105e684610588565b92506105f460208501610588565b929592945050506040919091013590565b5f60208284031215610615575f5ffd5b61061e82610588565b9392505050565b5f5f60408385031215610636575f5ffd5b61063f83610588565b915061064d60208401610588565b90509250929050565b600181811c9082168061066a57607f821691505b60208210810361068857634e487b7160e01b5f52602260045260245ffd5b50919050565b8082018082111561022757634e487b7160e01b5f52601160045260245ffdfea26469706673582212205c1f544ca9b360d3898a5ae28312f3e00ca3bc93e463d149db67da476094536364736f6c634300081c0033a2646970667358221220b45755ba32883aed0d78a52c2e1b4f19fea5a42b6f90f10ea48d898b9306c1b864736f6c634300081c0033","linkReferences":{}},"methodIdentifiers":{"INITIAL_SUPPLY()":"2ff2e9dc","contractAddress()":"f6b4dfb4","deployERC20Token(string,string,string)":"fcd0508f","getDeployedTokens()":"622ae7aa","getTotalFeeRequired()":"b2b8cf58","owner()":"8da5cb5b","setCreationFee(uint256)":"b7d86225","setPoolAddress(address)":"e9e15b4f","tokenCreationFee()":"540a9f6f","tokens(uint256)":"4f64b2be","transferOwnership(address)":"f2fde38b","withdrawFees()":"476343ee"},"id":2}